:020000040800F2
:10000000D8080020750100082F1E00082D1E0008CA
:1000100000000000000000000000000000000000E0
:10002000000000000000000000000000331E000877
:100030000000000000000000311E0008351E00080E
:100040008701000887010008870100088701000870
:10005000870100088701000887010008190D0008C2
:100060008701000887010008870100088701000850
:100070008701000887010008870100088701000840
:100080008701000887010008870100088701000830
:100090008701000887010008870100088701000820
:1000A000870100088701000887010008CD220008A9
:1000B0008701000887010008870100088701000800
:1000C00000F002F800F046F80CA030C808382418F8
:1000D0002D18671EA246AB4654465D46AC4201D180
:1000E00000F038F87E460F3EB6460FCC012633426C
:1000F00000D0FB1A3343A246AB461847D82A00006B
:10010000F82A0000103A02D378C878C1FAD852070A
:1001100001D330C830C101D504680C6070470000BD
:100120000023002400250026103A01D378C1FBD813
:10013000520700D330C100D50B6070471FB500983F
:10014000019900F0CEFB00F0EBF81FBD10B500F0F8
:1001500053F910BD00F082F91146FFF7EFFF02F0EE
:1001600029FA00F08FFB03B4FFF7F0FF03BC00F0A7
:1001700037FD00000748804707480047FEE7FEE7D5
:10018000FEE7FEE7FEE7FEE704480549054A064BA1
:10019000704700003D1E0008C1000008D802002082
:1001A000D8080020D8040020D80400200FB4054946
:1001B00010B503AA029800F083F810BC08BC04B084
:1001C000184700006C00002001E004C0091F04294A
:1001D000FBD28B0701D50280801CC90700D00270BA
:1001E000704700290BD0C30702D00270401C491E83
:1001F000022904D3830702D50280801C891EE3E70D
:100200000022EEE70022DFE782078B079A423FD108
:1002100070B5920F0AD0032402780B78401C491C59
:10022000002A33D09A4231D12042F5D1214EF40137
:1002300004C808C9951B9543254018D19A420FD18F
:1002400004C808C9951B9543254010D19A4207D18F
:1002500004C808C9951B9543254008D19A42E7D0A8
:1002600012BA1BBA01209A4200D2404270BD12BAA3
:100270001BBA2DBA18241000E0401900E140401AC2
:1002800005D12E00E64002D1083CF4D1D01A70BD51
:1002900002780B78401C491C002A09D09A4207D1E9
:1002A00002780B78401C491C002A01D09A42EFD0FA
:1002B000D01A704701010101704770477047000074
:1002C000084B70B50D467B4400F013F804462846F1
:1002D00000F022F8002802D00020C04370BD204664
:1002E00070BD00008928000001694A1C026108787D
:1002F000704700B58FB00291002105910549019327
:100300007944039111460490684600F0ECF80FB070
:1003100000BD0000E5FFFFFFC06880210840704776
:1003200010B543485421FFF76DFF42485421FFF7B1
:1003300069FF41485421FFF765FF40483C493D4B68
:10034000404A01603E4803603B4810605A1C0A6501
:10035000411C1965012101653C48354A3AA17844A0
:1003600000F0F4F9002804D1384878440C3800F043
:1003700091FA38482F4A36A1784400F0E7F900286E
:1003800004D1344878440C3800F084FA32482A4AC0
:100390002FA1784400F0DAF9002804D12E487844DF
:1003A0000C3800F077FA40232148DC000021224677
:1003B00000F0A6F9002804D0244878445C3800F006
:1003C00069FA1C4822464023002100F099F90028D0
:1003D00004D0204878445C3800F05CFA1648224685
:1003E0001023002100F08CF9002804D01A4878442A
:1003F0005C3800F04FFA10BD0F4870B5006D44082E
:100400000B48640000F01AFA0A4800F017FA0A488C
:1004100000F014FA09E0206D450820466D0000F058
:100420000DFA204600F039F82C46002CF3D170BDAF
:10043000180000206C000020C000002000000020F8
:100440000400002008000020720000003028000096
:10045000770000001D280000F4270000754600F01A
:100460001FFAAE46050069465346C008C0008546DF
:1004700018B020B5FFF788FE60BCB64600260027FE
:10048000C0C5C0C5C0C5C0C5C0C5C0C5C0C5C0C544
:10049000403D490849008D46704770B50446051F28
:1004A00000F002FA0068002C1AD0446801E02046EF
:1004B0006468002C01D0AC42F9D301680A18AA4242
:1004C00004D12A6805468918016000E04560286863
:1004D0004119A14205D1616869602168401828600E
:1004E00070BD6C6070BDF8B5064600244768806832
:1004F00000903046F56803E00099B847641C304628
:10050000A8470028F8D12046F8BD0000F7B50546F9
:100510000C46C8680521C9048843012189050843A0
:10052000E060800602D5204600F015FB7249E068C5
:100530000140022903D0204600F0ACFABEE00521BC
:10054000012249030140D20391420FD1C00306D5D5
:100550006168E06A884200D80846606006E0206969
:10056000E0626060606901F02FFFA061A168002275
:10057000EEB200290EDAE06883050BD4C943A1600E
:100580000921226049030843E0606068411C616002
:100590000670AEE0E068012149030843E0600020F6
:1005A00020602069002831D1606901F00FFF01252A
:1005B00027462437ED02002816D0A0898005800F39
:1005C00008D0E06900F0BAF90028206102D0E068A4
:1005D000284318E001202761E061E0680321090257
:1005E0008843012189020DE0E06900F0A7F90028A5
:1005F0002061EFD0E0682843E0608105890F03D1D6
:10060000FF2101310843E06020696060E2683B4FF0
:100610002569D00520D56168E06A884200D808467F
:10062000411B05D02246284600F03EFA002845D15D
:100630000298002804D0E56200206560A06055E0C3
:10064000681CE0626060E069401EA060E0683843BA
:10065000E06030462E70FEBD0298002801D03A407E
:1006600009E06068411C61600670E06838430A2E4A
:10067000E06006D00022E16A6068814203D90B463F
:1006800002E00122F7E70346A7895B1B7F0504D43C
:10069000E7699F4201DD002A1ED0814200D8014651
:1006A0000F1A0020E5626560002BA06009DD22467C
:1006B0001946284600F0F8F9002802D00020C0436F
:1006C000FEBD002F08D0A069E5626560C01BA06177
:1006D000E06810210843E0600298002809D06168B2
:1006E000A069E562491B40186560A0610120C04314
:1006F000FEBD3046FEBD000082100000000001007B
:1007000070B5C468A50713D0650211D4D51FF93D93
:100710000AD0FF3D6D1E07D0FF3DFF3D022D07D1E2
:1007200001462431012305E0074E5D1EB54201D389
:10073000012070BD0161C36141600F2109028C433A
:100740001443C460002070BDFFFFFF00F7B51646DC
:100750000C460098002843D0104600F06FF820782F
:10076000611C61280AD0722802D0772839D102E0B2
:100770000125002404E00225042401E02D4D082475
:100780000222032301270878491C2B2806D062285F
:1007900007D02039C87F742807D008E01D431443D0
:1007A000F1E7042005433C43EDE7102004430098A3
:1007B000214601F015FE411C13D00021316171600A
:1007C0000121F5604902F1617061200704D53046CE
:1007D0000222002100F0E4F8306D384330653046E5
:1007E000FEBD0020FEBDF8B50D460646124C206D3C
:1007F000C10704D0410804D044086400F7E722464A
:1008000010E0542000F09AF8070010D07908206D0D
:100810004900012211430843542120653846FFF75F
:10082000F1FC3A4629463046FFF790FFF8BD00201C
:10083000F8BD00000280000018000020F8B5044652
:100840000026476900690090E568A80717D0204690
:1008500000F05BF9384601F0ABFD002800DA761EA7
:10086000280502D50098FFF718FE4C212046FFF717
:10087000C9FC206D4008400020653046F8BD0020CE
:10088000C043F8BD10B50446C046C0462046FFF739
:100890006AFC10BD10B500F089F900F081F910BDB7
:1008A0000048704714010020004870471C010020D8
:1008B000704770477047704738B504460A460020B5
:1008C0006946C046C046002805D002462046009929
:1008D00000F093F9012038BD10B5012000F0E2F9D5
:1008E00010BDF8B5C046C046054600200C46102095
:1008F000C0460646A819A0420DD9324669460020D6
:10090000C046C046070001D100F0CCF90098A042D3
:1009100000D00546C419FFF7C7FFF61D074605605E
:10092000F008C0004619284600F060F9B44204D02F
:1009300031463868A21B00F060F9F8BD70B5064674
:10094000FFF7B2FF056830460B30C408E400B4423C
:1009500001D8002070BD68682A46002818D00168B8
:10096000A14211D30B46214608318B4208D343687C
:1009700001194B6003681B1B0B605160046001E0B0
:1009800041685160001D70BD024640680028E6D1F4
:1009900021462846FFF790FF0028DCD170BD0000FB
:1009A000F8B5044616460D464769007B800730D0EF
:1009B000384601F00BFD00282BD132461026002AC4
:1009C00025D0012A02D0022A23D104E0204600F0DB
:1009D0002EF945191BE0384601F0F6FCE168314379
:1009E0000028E16004DA204600F054F80120F8BD48
:1009F000C9030BD56268E16A914200D81146A26929
:100A000089182269891A814200DD08462D18002DB7
:100A100001DA0220F8BDE16A6068E268814206D22C
:100A20009103E06203D5012149048A433243A66958
:100A3000AE4211DCE16A814201D90B4600E0034677
:100A40009F192369FF1AAF4206DD814201D90F4683
:100A500000E007469F4206D1202002430020A0600C
:100A6000A56220600DE0AD1BE669AE1B8142A66069
:100A700000D90846C01A281A206058196060202042
:100A80008243034802400020E26040342072F8BDF7
:100A9000BFCFD7FFC1688022114392039143C16049
:100AA0000021816001607047F7B515460C4682B0A1
:100AB000506900903748D768074209D0A969009863
:100AC00001F0BAFC002815DB3248C0430740EF6054
:100AD000314EB44200D826463B4632460299009831
:100AE00001F0AEFC4200A9695208B21A8918002828
:100AF000A96106D02846FFF7CDFF0020C04305B00E
:100B0000F0BDA41BE4D10020F9E770B504460569E7
:100B1000C06A6168884200D80846E1680522D204AC
:100B20009143E160C90314D5A84209D02246411B74
:100B30002846FFF7B9FF002802D00020C04370BD4F
:100B4000E56200206560A060E06801210904884337
:100B5000E060002070BD10B50446C06820218843C5
:100B6000E060A16AA06988420ED02046FFF7CDFF61
:100B7000E06803210903884310210843E060A06A6C
:100B8000A0612069E06260600449E0680840E060BC
:100B900010BD000010000200FFFFFF7FBFBFFFFF7E
:100BA00010B5002801D000F01BF810BD10B50146AB
:100BB00002A000F05DF8012010BD0000534947522B
:100BC000545245443A2052656469726563743A2010
:100BD00063616E2774206F70656E3A20000000001C
:100BE00001491820ABBEFEE726000200002101608B
:100BF0004160806070471020704710B50346406820
:100C000001E003464068002801D08842F9D3186803
:100C1000C3188B4206D0CB1CD808C000001D411A57
:100C2000521A0146081D0A60FFF737FC10BD10B5C7
:100C30000146C268900703D0900607D5886A0AE08B
:100C400000F03EF801210160881E10BD8B694868E4
:100C5000C0180B69C01A40310B7A002B02D0497AB8
:100C6000401A10BD1103FCD50028FADD401E10BD4E
:100C700070B505460C460A2000E06D1C00F018F81F
:100C8000002D06D028780028F7D102E0641C00F07F
:100C90000FF8002C02D020780028F7D10A2000F0AD
:100CA00007F870BD10B500F00FF8FFF779FF10BD21
:100CB00008B5694608700320ABBE08BD7047000048
:100CC000004870471401002010B5012805D000210C
:100CD00003A0FFF7CDFF012010BD09A1F8E7000038
:100CE00053494752544D454D3A204F7574206F6615
:100CF0002068656170206D656D6F7279000000007D
:100D00003A2048656170206D656D6F727920636F60
:100D10007272757074656400F0B581B0184C20680B
:100D200040062AD5174D281F0168890709D41DA040
:100D3000FFF73CFA1448012101702968022008439A
:100D400016E00068800714D50F4E3078002810D0C8
:100D50000120307028680227384328600B4800F0D3
:100D600029F8002030700AA0FFF720FA2868B8435D
:100D70002860206840210143216001B0F0BDC046D9
:100D80001404014014080048D0020020B80B0000F1
:100D9000726973696E6720696E7420207365630AD7
:100DA0000D00000066616C6C696E6720696E740AE4
:100DB0000D000000B0B5044600F0DEF80546601CEA
:100DC00002D08A480078041900F0D6F8401BA042EF
:100DD000FAD3B0BDF0B58AB002900D68002D00D1F5
:100DE000B9E05E48029A824201D0052000E004206A
:100DF0001723DB06D2180A23DA410092042A00D313
:100E0000009000273B463C4608912A460BE01343DE
:100E10003360079B641C0A681046E040BF1C1B1D22
:100E2000002800D197E001200646A6403240F1D0CC
:100E30000490079303200346BB400397DF434968B0
:100E40000D4605406B1E012B0697059113D80192A4
:100E5000029A90683840089BDB68039FBB400343BD
:100E60009360C806C00FA0405368B3431646019A6A
:100E70000343736006E0032D029E039F02D10546E3
:100E8000079B1EE0F0680699084008998B68BB40F4
:100E90000343F360022D079B13D11C2018400F2140
:100EA0008140E3089B00F3181D6A8D43089E316959
:100EB000814029431962079B7068029E03250590B3
:100EC0000540BD40306806990840284330600598C9
:100ED0008003800F0899049D9CD04F4908682843DF
:100EE00008600868284009900C2018400F218140B4
:100EF000032325469D43099B1A4EAB598B4300990A
:100F000081401943A9510899154EB5684868C30234
:100F10000FD51543B560F56883020FD49543F5608E
:100F2000756883030FD4954375603368C00310D58B
:100F30006DE79543B560F5688302EFD51543F5601D
:100F400075688303EFD5154375603368C00300D51A
:100F50005DE793435CE70AB0F0BDC046001000486F
:100F60000004014008000140002A02D018228150EC
:100F70007047282281507047054800687047C04676
:100F80001A48007802490A68101808607047C0467D
:100F9000D402002010B5DD48016810220A43026027
:100FA0000024204600F004F800F022F8204610BD8E
:100FB00070B504467D20C0000C4E317801F0CEFCA7
:100FC0000146DA48006801F0C9FC00F03BFC01254D
:100FD000032C08D8002806D10025E84321462A46DC
:100FE00000F028F87460284670BDC0460C00002050
:100FF00082B0094801680122114301600168114073
:1010000001910199110742680A4342604068084013
:101010000090009802B0704718100240002805D4D4
:101020001F21084001218140014801607047C046EE
:1010300000E100E0002805D40322034693430A4A56
:101040009A1803E00C220240064BD2188007C00E0B
:101050008901C9B28140FF23834010689843084347
:101060001060704714ED00E000E400E0F0B585B0DA
:1010700004468078C0074C4B4FD0012003900107F5
:101080001A1F10680840029006D1106808431060CB
:10109000106808400490049800920191434E306813
:1010A000C00513D403980702306838433060FFF757
:1010B00063FF05463068384208D1FFF75DFF401BEB
:1010C0006428F7D90325284605B0F0BD032528027A
:1010D000354B1968014012D06268024091420ED02F
:1010E0000398000419681A6802431A601A68824358
:1010F0001A6008462E4A10401860C80745D1186883
:101100002B4908406168014319600298002804D106
:10111000009A10680199884310602068C10709D1BE
:1011200081070FD4810616D481031CD40025400505
:10113000C9D521E0196903229143A2680A431A61C3
:101140008107EFD5032109041A698A43E168114335
:1011500019618106E8D519691022914322690A4371
:101160001A618103E2D5196980229143A2690A4379
:101170001A6100254005A6D5186940218843616998
:1011800001431961284605B0F0BDFFF7F5FE06469C
:101190005F4F054B18688007B1D4FFF7EDFE801B49
:1011A000B842F6D98FE7C0462010024000700040D8
:1011B000FFFCFFFFF0B581B0002847D00446534A3A
:1011C0001368012003408B4208D213680126B34301
:1011D0000B431360126832408A4238D10091216873
:1011E0008A07694B11D54A0707D507221202664BB9
:1011F0001B681343644A1360634B1A68F0239A43D5
:10120000A3681343604A13605F4BC90722D13F496B
:10121000086801263040009A904205D90868B0431A
:1012200008600868C00712D12078400706D507205B
:10123000000219688143E068084318601A681007C3
:10124000810F5248022912D2044650E0012630464E
:1012500001B0F0BD616803290DD01A1F02290FD01B
:10126000012912D1126892030646F0D511E0032934
:1012700026D1474C3BE01A6B92030646E7D508E0BF
:10128000126892010646E2D503E01268920706460C
:10129000DDD518680326B04308431860FFF76CFEDD
:1012A00007461B4D384B18680C21014060688000D0
:1012B0008142ACD0FFF760FEC01BA842F2D9C6E75E
:1012C0000321CB033049896A0F240C403149095D61
:1012D00094021A40240F304D2C5D9A4202D0330400
:1012E0009A4200E02A4801F039FB4443264B186833
:1012F0000006000F0749085CC4400C480460002643
:101300003046FFF755FE304601B0F0BD00200240E8
:1013100088130000722B0008044800681A49096805
:101320004905490F024A515CC8407047140000202B
:10133000822B0008B0B514490A681007830F1348C0
:10134000022B00D2B0BD032B01D11148B0BD032345
:10135000DB03896A0F240C400E49095D94021A4090
:10136000240F0D4D2C5D9A4207D001231B049A4295
:1013700001F0F4FA44432046B0BD054801F0EEFA0E
:1013800044432046B0BDC0460410024000127A001B
:10139000006CDC02B12B0008A12B0008F0B587B06F
:1013A00004460120002C00D145E204902078C007BB
:1013B000F94E05940CD071680C200140042900D02E
:1013C00090E03068800303D56068002800D120E1F8
:1013D0002078800721D570680007800F0ED07068D4
:1013E0000C210140082900D09DE00320C003716852
:1013F00001400120C003814200D094E030688007A2
:10140000059C03D5E068012800D002E13068F8218E
:1014100088432169C90001433160059C2078000799
:1014200024D42078400737D42078C00600D4D3E0F5
:1014300005984069411D00D1C2E0012800D030E18B
:10144000706B042101437163706B0121014371636F
:10145000FFF792FD0546706B800700D5B4E0FFF7FB
:101460008BFD411B03200229F5D9E4E1706AE16993
:10147000002900D181E0012108437062FFF77CFD63
:101480000546706A8007CCD4FFF776FD401B022822
:10149000F7D9032007B0F0BD012003900107F069E0
:1014A0000840029006D1F0690843F061F0690840F5
:1014B000069006980191E14F3868C0054AD4039818
:1014C0000402386820433860FFF756FD0546386847
:1014D00020423FD1FFF750FD401B6428F7D903207D
:1014E00007B0F0BD71680140082908D10320C0038E
:1014F0007168014001200004814200D161E7616808
:1015000001204704002900D117E1052900D12BE172
:10151000012900D12CE1010432688A433260810440
:101520003068884327E13068059CE168002936D09F
:10153000012108433060FFF71FFD05463068800732
:1015400000D563E7FFF718FD401B0228F6D90320FA
:1015500007B0F0BD05988068002800D1B6E00528E6
:1015600000D1C9E0012800D1CAE0306A039988435C
:101570003062306A04218843C5E0012188437062EB
:10158000FFF7FAFC0546706A800700D449E7FFF7C9
:10159000F3FC401B0228F6D9032007B0F0BD01215F
:1015A00088433060FFF7E8FC05463068800700D4C8
:1015B00033E7FFF7E1FC411B03200229F5D93AE1AB
:1015C000706B042188437063706BF8218843059920
:1015D0008969C900014371630598007880060BD5BD
:1015E00071680C2001400C2939D1706B800303D540
:1015F0000598006A01280CD10598446A002C00D196
:10160000E1E070680C210140082905D1012C00D0CF
:10161000C4E0049807B0F0BD0120020631680492CE
:10162000914331604706FFF7A7FC0546022C0BD11A
:10163000049C3068384200D1DEE0FFF79DFC411B7E
:1016400003200229F5D9F6E03068384200D1BAE02B
:10165000FFF792FC411B03200229F5D9EBE07168EA
:101660000140082905D10320C0037168014081426F
:10167000BBD0706B0599096A002900D1A9E001214E
:101680000A04104370634C04FFF776FC0546706B48
:101690002042B1D1FFF770FC411B03200229F6D98B
:1016A000C9E0706B042101437163706B01218843B1
:1016B0007063FFF761FC0546706B80078CD5FFF700
:1016C0005BFC411B03200229F6D9B4E0306A039980
:1016D00088433062306A042188433062584CFFF7F7
:1016E0004BFC0546306A80071DD5FFF745FC411BC2
:1016F0000320A142F6D99EE0306A04210143316201
:10170000306A0399084330624D4CFFF735FC0546BB
:10171000306A800707D4FFF72FFC401BA042F7D99F
:10172000032007B0F0BD02980028059C00D07BE69E
:10173000F06901998843F06176E6010432688A43D2
:1017400032608004316881433160FFF715FC054643
:10175000059C3068384200D13AE6FFF70DFC411B8A
:1017600003206429F5D966E0810432680A433260B7
:101770000104306808433060FFF7FEFB054630681F
:10178000384200D024E6FFF7F7FB401B6428F6D967
:10179000032007B0F0BDC046001002400320C20382
:1017A00070680240F16A059CA36A9A42049D0DD1BB
:1017B0000F221140236B994208D191040840E16A3D
:1017C0008842284637D1002007B0F0BD284607B030
:1017D000F0BD01210A04904370634C04FFF7CCFB79
:1017E0000546706B204200D106E7FFF7C5FB411BA1
:1017F00003200229F5D91EE0F06A0F218843059ADB
:10180000116B0143F1627B20C00371688143D06A90
:101810000843916A01437160306820433060FFF7EC
:10182000ABFB044630683842CDD1FFF7A5FB011B66
:1018300003200229F6D907B0F0BDC0460070004071
:1018400088130000401E010E01D001207047074997
:10185000074A5060074803680B400321890759185D
:10186000016000209060072111607047FFFFFF00BA
:1018700010E000E020ED00E010B53C22825C012A7F
:1018800001D1022010BD02463C3202235370006891
:1018900043687024A3430C681C43836844600D4C68
:1018A000A04207DC0124A407A04209D0254CA04295
:1018B00006D00AE0084CA04202D0C74CA04204D196
:1018C0008024A343496819438160002010700121DE
:1018D000517010BDFF2B014000400140F0B587B0B2
:1018E0000068F749884201D007B0F0BD0125E8043F
:1018F00015490A6802430A600A6802400292029887
:10190000A8040A6802430A600968014001910026A0
:10191000069605960496022703970320000202907C
:1019200001980A4802AC2146FFF754FA069505963D
:10193000049603972020029005482146FFF74AFAB3
:1019400007B0F0BD00040040141002400008004839
:1019500000040048F0B583B03C23C35C012B02D1E6
:10196000022003B0F0BD07463C370223DA41032AC8
:1019700039D802977A4412795200974401394C6160
:101980000268146A012084431462D44C14190A2595
:10199000EC41156A9D438E682E43536800930B6893
:1019A00001939569072C00D9ECE00346A340E12799
:1019B0003B4200D1EAE00C239E43CB680427BB43A3
:1019C0003343029F072C00D9E5E0A040E1242042E8
:1019D00000D1E0E003200002009E86434C69886944
:1019E00034430443D8E001200021397003B0F0BD36
:1019F0000268106A102398431062106A20239843EB
:101A00008B681B01034350680D689469AB4EB2426A
:101A100050D01E4655E001273B020268106A9843E9
:101A200010627802146A8443886803022343506872
:101A30000C680194D569A14EB24256D01E465DE0B5
:101A4000012633030268106A98431062A3481318F2
:101A50000A20C341156A50688C680F680197D769DE
:101A6000072B00D9B4E0009434469C40E1231C428B
:101A700000D1AFE0B30398434B699B010343009C43
:101A800010461C30536073231B029F43019B1B02B3
:101A90003B43D3614B68136473039D4323032B4380
:101AA0001362F302D4691C43D461B302D4699C432A
:101AB000D4614CE0C026B343CE6836014027BE4314
:101AC0001E43864BD3180A27FB41072B29D8012731
:101AD0009F40E1231F4224D003239B0298434B697C
:101AE0008F691F43BB0003431CE00326B602B343C8
:101AF0003A4CFF3CCE68360226401E43774BD31843
:101B00000A24E341072B26D89F40E1231F4222D01D
:101B100003231B0398434B698C691C432301034334
:101B20001AE0034610461830536073231B029C438F
:101B30002B02234393614B68936316620123DC02FB
:101B40009569254395619B0294699C439461096959
:101B50000902029F34E00346029F10461C30536086
:101B600073239D43019B1D43D5614B68D36316626C
:101B7000D36908241C43D461D3690424A343D361EB
:101B800009691DE03346072C05D81EE73346029F3E
:101B9000072C00D819E7009C1046183054607324B5
:101BA000A543019C254395614C6854631362936976
:101BB00008241C43946193690424A3439361096935
:101BC00002680A43026000200021397003B0F0BDB2
:101BD000034655E7034652E7002C0140FFFBFFFF99
:101BE00070B5002829D0044605463C3568780028A1
:101BF00004D100202870204600F072F8022068709E
:101C000021680E6801208307994205D02B4A914232
:101C100002D03C4A914219D170229643A2683243C5
:101C2000284EB14216DD284B994208DC234B9942DD
:101C300018D0284B994215D03EE0012070BD234BAF
:101C400099420FD0224B99420CD035E032461D4EBE
:101C5000B142E8DC994205D02A4B994202D01E4B92
:101C6000994229D103231B029A4323691343224635
:101C70003E328026B343A6691E430E60E368CB6202
:101C800063688B62154BCB180A26F341072B06D8E5
:101C900006469E40E1231E4201D063690B63486102
:101CA0001072107050709070D070107150719071EF
:101CB000D0716870002070BD1346D8E7002C014039
:101CC00000040040FF2B0140FF4301400048014059
:101CD00000440140004001400020004000D4FEBF0D
:101CE00081B000680749884201D001B070470648BA
:101CF00001680222114301600068104000900098C2
:101D000001B07047000400401C100240B0B500282C
:101D10002FD00446C06F002805D17820002121541F
:101D2000204600F029F82420E0672068016801259A
:101D3000A9430160204600F04DF9012817D0606AE0
:101D4000002802D0204600F07AF80920C00221685D
:101D50004A6882434A6088682A22904388600868FB
:101D6000012202430A60204600F0D2F805462846C8
:101D7000B0BD0120B0BD000070B586B00024059450
:101D800004940394029401940068E14988422CD0A1
:101D9000DE49884246D124484168012205929303D6
:101DA000194341604168194000910099510402684B
:101DB0000A430260006808400090032504950394DC
:101DC000022002906802019000980920C00601A933
:101DD000FFF700F81B26304629462246FFF72AF96E
:101DE0003046FFF71BF906B070BD0F48816801222D
:101DF000059252041143816081681140009100995D
:101E0000016811430160006810400090049403943D
:101E1000022002900C2001900920C006009901A91F
:101E2000FEF7D8FF06B070BD14100240FEE7FEE7D3
:101E30007047704780B5FFF7A3F880BD7047B0B515
:101E4000416ACA070CD18A0714D44A071CD40A076E
:101E500024D4CA062CD48A0634D44A063CD44CE096
:101E60000122520403685C689443826A22435A60E8
:101E70008A07EAD50122120403685C689443C26AA7
:101E800022435A604A07E2D50122920403685C6843
:101E90009443026B22435A600A07DAD50122D20327
:101EA00003685C689443426B22435A60CA06D2D5E9
:101EB0000122120303689C689443826B22439A6058
:101EC0008A06CAD50122520303689C689443C26BF8
:101ED00022439A604A0610D501221305026854680D
:101EE0009C43056C2C4354609D4206D103235B0543
:101EF00054689C43436C23435360090607D5012172
:101F0000C904026853688B43806C18435060B0BDAD
:101F1000F0B583B00446064678360027F760FFF731
:101F20002BF803462068016809071FD52848009050
:101F3000012002904105002220461D4600F0F4F8E1
:101F4000002811D0EFF31080029981F310882168E6
:101F50000A6880239A430A6080F310882020E06793
:101F60000320377003B0F0BD20682B46006840079F
:101F700025D5174800900125A9050022204600F02C
:101F8000D3F800281BD0EFF3108085F310880921C7
:101F90004901226813688B43136080F31088EFF3C4
:101FA000108085F3108821688A68AA438A6080F3CC
:101FB00010882020B0600320377003B0F0BD2020CF
:101FC000E067B060276667663846377003B0F0BDDB
:101FD000FFFFFF01B0B5044600680168484A0A40A7
:101FE000A16823690B4365691D431543E1690D43EE
:101FF00005600322120343689343E2681A43426078
:10200000A269236A13430B221202856895431D437C
:10201000856000223B4B984206DC3D4B984210D035
:102020003C4B984216D014E0374B984212D0374AB6
:1020300090420ED1384800688007000F374A125886
:1020400008E035480068800B0C2202403348825873
:1020500000E010220125EB033148994210D1082AF3
:1020600049D8C0467A441279520097440444204427
:10207000194444441F00FFF74FF9002817D113E01B
:10208000082A38D87A441279520097440434273405
:10209000203434342600FFF73FF900281ED11AE01F
:1020A000FFF748F9002802D1002524E01846400037
:1020B00061684A08101800F051FC0246103A1949AC
:1020C0008A4218D201400007400F084310E0FFF792
:1020D00031F9002802D100250DE0184661684A0850
:1020E000101800F03BFC014610390E4A914202D212
:1020F0002168C86000250020A066E0662846B0BDC3
:10210000F369FFEFFF4B0040004C004000380140F6
:10211000004400400048004030100240C42B00083A
:1021200000127A00F0FF0000F0B587B015460F46A8
:102130000668F1693940C91B4A424A410021AA4256
:1021400025D106930C9C002C24D00B46611C26D173
:10215000F1693940C91B4A424A41AA4214D1F16986
:102160003940C91B4A424A41AA420DD1F16939405E
:10217000C91B4A424A41AA4206D1F1693940C91BEA
:102180004A424A41AA42E3D0184607B0F0BD084689
:1021900007B0F0BDFEF7F0FE032007B0F0BD0293DC
:1021A00001467831039101210191C9020491059002
:1021B00006E0C9693940CA1B51425141A9424BD17D
:1021C000FEF7DAFE0699411A0323A142DCD80598EE
:1021D00001680A685207ECD5CA6912073FD4CA6978
:1021E0002646049C22423446E3D01F4604980862E7
:1021F000EFF31082012181F3108809235B01059818
:10220000046825689D43256082F31088EFF31082EF
:1022100081F31088059803689C688C439C6005983E
:1022200082F31088026E012A0BD1EFF3108281F342
:10223000108801680B681024A3430B60059882F393
:1022400010882021039B99600022026682661A7022
:10225000D960384607B0F0BD029807B0F0BD082538
:102260000D62EFF31081019880F31088092252016A
:10227000059B1B681C6894431C6081F31088EFF376
:10228000108180F31088059A1268936883439360E5
:10229000059B81F31088196E01290CD1EFF3108191
:1022A000012282F310881A6813681024A343136074
:1022B000059B81F310882021039A91600021196603
:1022C00099661170D56007B0F0BD000080B5364842
:1022D0000168890600D480BD0089C0B233490880F6
:1022E00032384328F7D8C046784400794000874404
:1022F00022262A2E322121212121212121212121A1
:1023000021212121362121212121213A212121218F
:10231000213E21212142212121212121212121216F
:1023200021464A212121212121212121214E212122
:1023300021522156CFE7022000F0B6F880BD0320DD
:1023400000F0B2F880BD042000F0AEF880BD05209A
:1023500000F0AAF880BD062000F0A6F880BD03209A
:1023600000F09CFA80BD042000F098FA80BD0620A1
:1023700000F094FA80BD052000F090FA80BD632043
:1023800000F092F880BD012000F088FA80BD6F2037
:1023900000F08AF880BD022000F080FA80BD0020A5
:1023A00000F07CFA80BDC0461C3801402844004043
:1023B000044941180220C2430020914200D2C04388
:1023C0007047C046FC7FFFFF00207047034940185C
:1023D000032801D30020704701207047FF7FFFFFD3
:1023E00070B505460020C443002D16D028783A2841
:1023F00013D10D492846FDF707FF0C4E00280ED0DB
:102400000B492846FDF700FF00280AD00949284655
:10241000FDF7FAFE002800D1B41C204670BD3046FE
:1024200070BD701C70BDC046922B0008018000007A
:10243000992B00088A2B00080020C0437047000039
:1024400070B50E4600240A4988420CD009498842DA
:102450000BD11546002A06D0307800F063FA6D1EC5
:10246000761C002DF8D1204670BDE04370BDC046FB
:102470000380000002800000F648002141620168EC
:102480000122114301601102026A0A43026270478D
:10249000F0480021416201680122114301601103EB
:1024A000026A0A4302627047811E04291AD8880012
:1024B00001A108588746C046CD240008132500080E
:1024C0002B250008432500084F25000838480168DF
:1024D000364A1378002B54D0002313700422914302
:1024E00001607047632838D06F2835D130490A68B9
:1024F000042002430A600A68082313430B602B4937
:1025000001228A704A700A7027490A6802430A60E9
:10251000704727480168254A5378002B3DD0002397
:10252000537008229143016070471F4801681F4A99
:102530009378002B2BD000239370042291430160E9
:1025400070471948016808220A430260704716481C
:10255000016808229143016070470420C043EF499D
:102560000A6802400A600A6808239A430A600F4911
:1025700000228A704A700A700B490A6802400A6099
:102580007047012313700422114301607047012337
:102590009370042211430160704701235370082295
:1025A000114301607047C0461404004874010020C4
:1025B000140800489CB0FEF7EDFC0FAD281D30213B
:1025C000FDF720FE002418940120179020200F9082
:1025D0000A94099408940794069405942846FEF7F3
:1025E000DDFE002803D0EFF3108072B6FEE70E94F4
:1025F0000D9403250C9507200B900BA8012631465E
:10260000FEF7D8FD002803D0EFF3108072B6FEE786
:1026100007940694049504A8FEF728FD002803D02B
:10262000EFF3108072B6FEE713941294F10482481F
:1026300002680A43026002680A4004920499B105E4
:1026400002680A43026002680A4004920499710415
:1026500002680A43026002680A4004920499B104C5
:1026600002680A43026000680840049004987348B6
:1026700073492246FEF778FC0920C50603952846D3
:1026800031463246FEF770FC202128460191224651
:10269000FEF76AFC6B480E2102912246FEF764FCAD
:1026A000119421273804109070030F900FAD6348E8
:1026B0002946FEF78FFB12941194109660480F90F4
:1026C0005E482946FEF786FB1294119410960F97E8
:1026D00003982946FEF77EFB1294119410960298F7
:1026E0000F90584F38462946FEF774FB119431205D
:1026F0000004109040260F9638462946FEF76AFBE4
:102700000725032128462246FEF794FC2846FEF7BB
:1027100085FC4D480C214B2252024C4B0360426019
:102720008460C460046141618461C4610462446284
:10273000FFF7ECFA002803D0EFF3108072B6FEE743
:10274000019F4348802181616321424AFF23E03396
:102750001CC001604460059404941594149413946F
:1027600012940C38FFF73CFA002803D0EFF31080E6
:1027700072B6FEE7364804A9FFF77EF8002803D0BA
:10278000EFF3108072B6FEE713941194109460205A
:102790000F902F480FA90422FFF7DCF8002803D080
:1027A000EFF3108072B6FEE729480FA90822FFF761
:1027B000D1F8002803D0EFF3108072B6FEE724486A
:1027C0000FA90C252A46FFF7C5F8002803D0EFF320
:1027D000108072B6FEE71E48FFF780F81E48E12120
:1027E00049021E4A026041608460C4600461456120
:1027F0008461C46104624462FFF788FA002803D050
:10280000EFF3108072B6FEE7144908683843086099
:10281000086A3043086212A0FDF7C8FC154804702E
:1028200015A0FDF7C3FC18A0FDF7C0FCFFF724FEC0
:10283000FFF72EFEFEE7C0461410024000080048D5
:10284000FE0400000004004848020020004400404C
:102850007801002000040040C00100200038014041
:1028600054696D65725F636F6E74726F6C2E200AAF
:102870000D000000D00200206C656420636F6E7450
:10288000726F6C2E0A0D00006D6F746F7220636F93
:102890006E74726F6C2E0A0D0000000006283CD882
:1028A0001E49800001A210588746C046D128000862
:1028B000E5280008C9280008F9280008FF280008B2
:1028C00005290008C92800080868F022904323E081
:1028D0001348642242600868F022904308600A6846
:1028E000802018E00E48642242600868F02290437D
:1028F00008600A6840200EE00948642204E00848A5
:10290000462201E006481E2202600868F022904339
:1029100008600A68102010430860704714080048D7
:102920003C0400400B490A68120611D40A4A0240CE
:102930008A810B681B060BD48A810B681B0607D49F
:102940008A810B681B0603D48A810B681B06EFD5AE
:102950007047C0461C440040FF01000043088B4202
:102960001AD3002203098B4279D3030A8B425ED328
:10297000030B8B4242D3030C8B4227D30902FF2265
:1029800012BA030C8B4202D31212090203D0030BBA
:102990008B4233D31AE0D3E0411A8041401C704788
:1029A00003460B4371D443088B42F5D3002203093D
:1029B0008B4254D3030A8B4239D3030B8B421DD372
:1029C000030C8B4202D394466EE0090AC30B8B4280
:1029D00001D3CB03C01A5241830B8B4201D38B032B
:1029E000C01A5241430B8B4201D34B03C01A5241D0
:1029F000030B8B4201D30B03C01A5241C30A8B4213
:102A000001D3CB02C01A5241830A8B4201D38B02FD
:102A1000C01A5241430A8B4201D34B02C01A5241A1
:102A2000030A8B4201D30B02C01A5241CDD2C30913
:102A30008B4201D3CB01C01A524183098B4201D38F
:102A40008B01C01A524143098B4201D34B01C01A7A
:102A5000524103098B4201D30B01C01A5241C308F2
:102A60008B4201D3CB00C01A524183088B4201D361
:102A70008B00C01A524143088B4201D34B00C01A4D
:102A80005241411A524110007047CA0F00D04942CA
:102A9000031000D34042534000229C4603098B425E
:102AA0002DD3030A8B4212D38901FC2212BA030AE6
:102AB0008B420CD3890192118B4208D38901921168
:102AC0008B4204D3890137D0921100E08909C309F0
:102AD0008B4201D3CB01C01A524183098B4201D3EF
:102AE0008B01C01A524143098B4201D34B01C01ADA
:102AF000524103098B4201D30B01C01A5241C30852
:102B00008B4201D3CB00C01A524183088B4201D3C0
:102B10008B00C01A5241D9D243088B4201D34B00DB
:102B2000C01A5241411A00D2014652411046634632
:102B30005B1000D34042704763465B1000D34042B5
:102B400001B50021004201D0C9430846C046C04635
:102B500002BD10B58A68002A03DC0022FDF7D6FC0E
:102B600010BD521E8A604A68C0B2531C4B60107080
:102B700010BD000000000000000001020304060771
:102B8000080900000000010203043A53544445526E
:102B900052003A535444494E003A5354444F55540A
:102BA0000002030405060708090A0B0C0D0E0F109E
:102BB000100102030405060708090A0B0C0D0E0F8D
:102BC00010000000000000000400000008000000E9
:102BD00002000000F82B0008000000201800000090
:102BE00004010008102C000818000020C008000094
:102BF00020010008000000000000000000000000AC
:102C000000000000010000000400000000127A0033
:04000005080000C12E
:00000001FF
